:100000000C9434000C9451000C9451000C94510049
:100010000C9451000C9451000C9451000C9451001C
:100020000C9451000C9451000C9451000C9451000C
:100030000C9451000C9451000C9451000C945100FC
:100040000C9451000C9451000C9451000C945100EC
:100050000C9451000C9451000C9451000C945100DC
:100060000C9451000C94510011241FBECFEFD8E026
:10007000DEBFCDBF11E0A0E0B1E0E4EBF8E002C0EC
:1000800005900D92A831B107D9F721E0A8E1B1E0C0
:1000900001C01D92A835B207E1F70E9406030C9437
:1000A00058040C940000DC0190E020E030E08AE08D
:1000B000FD01E90FF11D6081662369F09F5F829F5A
:1000C000A001839F500D112440535109240F351F67
:1000D000260F311DEDCFC9010895DF92EF92FF92F7
:1000E0000F931F93CF93DF93CDB7DEB764970FB60F
:1000F000F894DEBF0FBECDBFCE0101967C0184E136
:10010000F70111928A95E9F7D12C00E00E942E01A7
:10011000182F8823D9F30E9443021D3359F18D2DE6
:1001200090E026ED210FF701E80FF91F223020F0B3
:10013000212F2D7F2D32D9F41082C7010E94530048
:10014000E02FF0E0EE0FFF1FE85EFE4F918380830B
:10015000E1E0E00FF0E00E5FEE0FFF1FE85EFE4F04
:10016000812F90E0C09791838083D12CCFCF1083D3
:10017000D394CCCF88E191E064960FB6F894DEBFBB
:100180000FBECDBFDF91CF911F910F91FF90EF90E8
:10019000DF900895CF93DF9340E0EAE0F0E0242F72
:1001A00030E0009751F0E901C05CDE4FBF010E94D2
:1001B00017038883CB014F5FF2CFF901E05CFE4F5C
:1001C000108280E491E0DF91CF91089584E690E081
:1001D0000E948C0284E690E00E948C0280E090E015
:1001E0000895FC01CB014B3281F050F44A32D1F436
:1001F000E89FB001E99F700DF89F700D112417C0A2
:100200004D3239F04F3241F00DC0BF01680F791FF8
:100210000EC06E1B7F0B0BC0309739F0BF010E94E0
:10022000170305C060E070E002C06FEF7FEFCB0105
:1002300008950E94CA000C946702509A519A529AEB
:10024000539A54985598569857985C9A5D9A5E9A26
:100250005F9A589A599A5A9A5B9A0895AF92BF92A8
:10026000CF92DF92EF92FF920F931F93CF93DF9382
:1002700020E0589A599A5A9A5B9A223041F02330DA
:1002800041F0213011F0589805C0599803C05A9890
:1002900001C05B9899B169B189B179B1B9B059B16F
:1002A00039B149B1B4FA002700F910E055FBEE244A
:1002B000E0F8F12C5801AE20BF20441F4427441F12
:1002C00050E04A215B2136FBCC24C0F8D12C4C21D4
:1002D0005D214130510511F159B149B119B139B11F
:1002E00054FBEE27E0F9F0E045FBAA27A0F9B0E0C7
:1002F0007F01EA22FB22331F3327331F432F50E0B5
:100300004E215F2116FB112710F9C12F30E0D32FAA
:100310004C235D2341305105F9F606C02F5F243090
:1003200009F0A7CF80E056C0382F3074872F80782F
:10033000832B362F3072832B9071892B223081F4DE
:10034000803B51F018F48037F1F00CC0803D31F063
:10035000803E41F481E33EC083E33CC082E33AC087
:10036000233099F4803B59F020F48037D9F68BE2A2
:1003700031C0803D31F0803EA9F683E42BC08DE38F
:1003800029C080E327C08DE225C0213081F0803B69
:1003900051F018F48037E9F00AC0803D31F0803E1A
:1003A00031F487E317C089E315C088E313C0803BAD
:1003B00061F020F4803721F68AE20CC0803D39F0EC
:1003C000803E09F0BDCF84E305C086E303C085E32A
:1003D00001C08FE2DF91CF911F910F91FF90EF90BD
:1003E000DF90CF90BF90AF900895982F92959F7017
:1003F00098B92A98289AEFE9FFE03197F1F700C001
:1004000000002898EFE9FFE03197F1F700C0000005
:100410008F7088B9289A8FE99FE00197F1F700C0A3
:1004200000002898EFE9FFE03197F1F700C00000E5
:1004300008958FE087B984B1876084B982E088B974
:10044000289A8FE99FE00197F1F700C000002898F3
:100450008FE99FE00197F1F700C0000088E20E9459
:10046000F5018FE99FE00197F1F700C000008FE0F0
:100470000E94F5018FE99FE00197F1F700C00000AD
:1004800080E80C94F501982F92959F7098B92A9A5C
:10049000289AEFE3FFE13197F1F700C000002898B8
:1004A000EFE3FFE13197F1F700C000008F7088B9EA
:1004B000289A8FE39FE10197F1F700C00000289888
:1004C000EFE3FFE13197F1F700C000000895CF930B
:1004D000DF93EC018991882319F00E944302FACF3F
:1004E000DF91CF91089581E00E94F5018FE19EE4B4
:1004F0000197F1F700C00000089520E4829FC00139
:1005000011248068860F0E94F50187EC90E0019726
:10051000F1F700C0000008950F931F93CF93DF936E
:100520008C0186E090E00E942B03EC011983088384
:100530008FEF9FEF9B838A83C801880F991F0E94CA
:100540002B039D838C83CE01DF91CF911F910F915F
:100550000895DC0112962D913C9113978D919C91F9
:1005600011972817390781F01496ED91FC91159792
:100570002F5F3F4F13963C932E931297220F331FFA
:10058000E20FF31F718360830895FC0182819381E0
:100590008F3F2FEF920751F09C01220F331F0480F1
:1005A000F581E02DE20FF31F808191810895DC0138
:1005B00012962D913C9113972F3F8FEF380781F0C2
:1005C0001496ED91FC911597C901019713969C9390
:1005D0008E931297220F331FE20FF31F2081318178
:1005E000C901089521E0FC0182819381019609F0FF
:1005F00020E0822F0895FC0181E042815381208117
:1006000031814217530709F080E008950E941902D2
:100610000E941D0186E091E00E94670260E081E097
:100620000E947D020E946D000E94E600FBCFAA1B83
:10063000BB1B51E107C0AA1FBB1FA617B70710F0CD
:10064000A61BB70B881F991F5A95A9F780959095FF
:10065000BC01CD010895CF93DF938230910510F452
:1006600082E090E0E0915601F091570120E030E007
:10067000C0E0D0E0309711F140815181481759070F
:10068000C0F04817590761F482819381209719F0CF
:100690009B838A832BC0909357018093560126C079
:1006A0002115310519F04217530718F49A01BE01BC
:1006B000DF01EF010280F381E02DDCCF2115310550
:1006C00009F1281B390B2430310590F412968D91D5
:1006D0009C9113976115710521F0FB01938382832F
:1006E00004C09093570180935601FD01329644C097
:1006F000FD01E20FF31F81939193225031092D9355
:100700003C933AC02091540130915501232B41F480
:10071000209102013091030130935501209354013F
:1007200020910001309101012115310541F42DB7CF
:100730003EB74091040150910501241B350BE09117
:100740005401F0915501E217F307A0F42E1B3F0B63
:100750002817390778F0AC014E5F5F4F2417350733
:1007600048F04E0F5F1F5093550140935401819301
:10077000919302C0E0E0F0E0CF01DF91CF910895C6
:100780000F931F93CF93DF93009709F48CC0FC0164
:100790003297138212820091560110915701011570
:1007A000110581F420813181820F931F2091540122
:1007B000309155012817390779F5F0935501E093E9
:1007C000540171C0D80140E050E0AE17BF0750F4AB
:1007D00012962D913C911397AD012115310509F128
:1007E000D901F3CF9D01DA013383228360817181C6
:1007F000860F971F8217930769F4EC0128813981CE
:10080000260F371F2E5F3F4F318320838A819B81C4
:1008100093838283452B29F4F0935701E09356018B
:1008200042C01396FC93EE931297ED0149915991B2
:100830009E01240F351FE217F30771F48081918127
:10084000840F951F029611969C938E9382819381BB
:1008500013969C938E931297E0E0F0E0D8011296E5
:100860008D919C911397009719F0F8018C01F6CFA8
:100870008D919C9198012E5F3F4F820F931F209185
:100880005401309155012817390769F4309729F43C
:10089000109257011092560102C0138212821093D7
:1008A000550100935401DF91CF911F910F9108954D
:0408B000F894FFCFEA
:1008B400000058012000456E7465722045787072FE
:0808C400657373696F6E21007A
:00000001FF
