:100000000C9434000C9451000C9451000C94510049
:100010000C9451000C9451000C9451000C9451001C
:100020000C9451000C9451000C9451000C9451000C
:100030000C9451000C9451000C9451000C945100FC
:100040000C9451000C9451000C9451000C945100EC
:100050000C9451000C9451000C9451000C945100DC
:100060000C9451000C94510011241FBECFEFD8E026
:10007000DEBFCDBF11E0A0E0B1E0EAEDF9E002C0E3
:1000800005900D92A831B107D9F721E0A8E1B1E0C0
:1000900001C01D92A835B207E1F70E9492030C94AB
:1000A000EB040C940000DC0190E020E030E08AE0FA
:1000B000FD01E90FF11D6081662361F09F5F829F62
:1000C000A001839F500D11249A0120533109260F5E
:1000D000311DEECFC9010895CF92DF92EF92FF92CA
:1000E0000F931F93CF93DF93EC0184E190E00E9484
:1000F00018037C010AE010E0209769F0CE01B801F6
:100100000E94AA036B01BC01605D7F4FC7010E9482
:100110003503E601F1CF10E0C7010E947E03C12F35
:10012000D0E0811108C01F5FC7010E946303C05C5B
:10013000DE4F8883F1CFC05CDE4F188280E491E00F
:10014000DF91CF911F910F91FF90EF90DF90CF90B3
:1001500008954B3299F050F44A32C1F4869F9001D1
:10016000879F300D969F300D112412C04D3251F0F3
:100170004F3261F40E94AA039B010AC09C01260F22
:10018000371F06C09C01261B370B02C020E030E061
:10019000C90108952F923F925F926F927F928F9242
:1001A0009F92AF92BF92CF92DF92EF92FF920F9306
:1001B0001F93CF93DF93CDB7DEB7C654D1090FB6E7
:1001C000F894DEBF0FBECDBF84E690E00E94180316
:1001D0006C0184E690E00E9418037C015E0183E3D9
:1001E000A80EB11C84E1F50111928A95E9F7CE01C0
:1001F00001964C0182E3F40111928A95E9F782E0BD
:100200008BA788AB81E08CA78EA760E070E0C60169
:100210000E94350310E0512C0E94B901082F882359
:10022000D9F30E94CE02212F30E00D3309F045C0F2
:10023000F501E20FF31F1082C5010E945300E52D66
:10024000F0E0EE0FFF1FE85EFE4F91838083BC015C
:10025000C7010E943503C6010E945103892B89F012
:10026000C7010E9463035C01C7010E9463038C0104
:10027000C6010E946303482FB501C8010E94A9006E
:10028000E6CFC7010E945103CA5BDF4F0FB6F89457
:10029000DEBF0FBECDBFDF91CF911F910F91FF90B9
:1002A000EF90DF90CF90BF90AF909F908F907F9016
:1002B0006F905F903F902F90089586ED800FF5012D
:1002C000E20FF31F823020F0802F8D7F8D32C9F531
:1002D0001082C5010E945300E52DF0E0EE0FFF1FD4
:1002E000E85EFE4F918380835394BC01C7010E9456
:1002F000350310E0F401E00FF11F7080C6010E9489
:100300005103880D991DFC0180817816A0F4C70166
:100310000E9463031C01C7010E9463033C01C601E4
:100320000E946303482FB101C3010E94A900BC01D0
:10033000C7010E943503B801C6010E94350310E0D1
:100340006BCF00831F5F68CF0E946C000C94F20299
:10035000509A519A529A539A549855985698579839
:100360005C9A5D9A5E9A5F9A589A599A5A9A5B9AE1
:100370000895AF92BF92CF92DF92EF92FF920F93C8
:100380001F93CF93DF9320E0589A599A5A9A5B9A19
:10039000223041F0233041F0213011F0589805C04F
:1003A000599803C05A9801C05B9899B169B189B155
:1003B00079B1B9B059B139B149B1B4FA002700F9EE
:1003C00010E055FBEE24E0F8F12C5801AE20BF20E0
:1003D000441F4427441F50E04A215B2136FBCC24B4
:1003E000C0F8D12C4C215D214130510511F159B19A
:1003F00049B119B139B154FBEE27E0F9F0E045FB02
:10040000AA27A0F9B0E07F01EA22FB22331F33279D
:10041000331F432F50E04E215F2116FB112710F9A7
:10042000C12F30E0D32F4C235D2341305105F9F625
:1004300006C02F5F243009F0A7CF80E056C0382FC8
:100440003074872F8078832B362F3072832B9071F6
:10045000892B223081F4803B51F018F48037F1F081
:100460000CC0803D31F0803E41F481E33EC083E327
:100470003CC082E33AC0233099F4803B59F020F429
:100480008037D9F68BE231C0803D31F0803EA9F64D
:1004900083E62BC08DE329C080E327C08DE225C011
:1004A000213081F0803B51F018F48037E9F00AC028
:1004B000803D31F0803E31F487E317C089E315C0F9
:1004C00088E313C0803B61F020F4803721F68AE294
:1004D0000CC0803D39F0803E09F0BDCF84E305C0FB
:1004E00086E303C085E301C08FE2DF91CF911F91C6
:1004F0000F91FF90EF90DF90CF90BF90AF90089555
:10050000982F92959F7098B92A98289AEFE9FFE062
:100510003197F1F700C000002898EFE9FFE031972C
:10052000F1F700C000008F7088B9289A8FE99FE02A
:100530000197F1F700C000002898EFE9FFE031973C
:10054000F1F700C0000008958FE087B984B187609B
:1005500084B982E088B9289A8FE99FE00197F1F782
:1005600000C0000028988FE99FE00197F1F700C0D4
:10057000000088E20E9480028FE99FE00197F1F776
:1005800000C000008FE00E9480028FE99FE0019789
:10059000F1F700C0000080E80C948002982F92953B
:1005A0009F7098B92A9A289AEFE3FFE13197F1F703
:1005B00000C000002898EFE3FFE13197F1F700C099
:1005C00000008F7088B9289A8FE39FE10197F1F7B7
:1005D00000C000002898EFE3FFE13197F1F700C079
:1005E00000000895CF93DF93EC018991882319F0DF
:1005F0000E94CE02FACFDF91CF91089581E00E9450
:1006000080028FE19EE40197F1F700C00000089599
:1006100020E4829FC00111248068860F0E9480021E
:1006200087EC90E00197F1F700C00000089508956D
:100630000F931F93CF93DF938C0186E090E00E948D
:10064000BE03EC01198308838FEF9FEF9B838A839E
:10065000C801880F991F0E94BE039D838C83CE0121
:10066000DF91CF911F910F910895DC0112962D918A
:100670003C9113978D919C9111972817390781F020
:100680001496ED91FC9115972F5F3F4F13963C9375
:100690002E931297220F331FE20FF31F7183608393
:1006A0000895FC01828193818F3F2FEF920751F0D3
:1006B0009C01220F331F0480F581E02DE20FF31F10
:1006C000808191810895DC0112962D913C911397C0
:1006D0002F3F8FEF380781F01496ED91FC9115971D
:1006E000C901019713969C938E931297220F331F83
:1006F000E20FF31F20813181C901089521E0FC013F
:1007000082819381019609F020E0822F0895FC01F7
:1007100081E042815381208131814217530709F0E2
:1007200080E008950E94A4020E94A8010E94B901DD
:100730008336E1F781E00E94800286E091E00E942A
:10074000F20260E081E00E9408030E94CA000E9459
:10075000A401ECCFAA1BBB1B51E107C0AA1FBB1F02
:10076000A617B70710F0A61BB70B881F991F5A953D
:10077000A9F780959095BC01CD010895CF93DF93A3
:100780008230910510F482E090E0E0915601F09102
:10079000570120E030E0C0E0D0E0309711F1408117
:1007A000518148175907C0F04817590761F48281F1
:1007B0009381209719F09B838A832BC090935701D4
:1007C0008093560126C02115310519F042175307B1
:1007D00018F49A01BE01DF01EF010280F381E02DE0
:1007E000DCCF2115310509F1281B390B24303105E7
:1007F00090F412968D919C9113976115710521F0DB
:10080000FB019383828304C0909357018093560128
:10081000FD01329644C0FD01E20FF31F81939193D5
:10082000225031092D933C933AC0209154013091CC
:100830005501232B41F420910201309103013093A3
:10084000550120935401209100013091010121159F
:10085000310541F42DB73EB7409104015091050197
:10086000241B350BE0915401F0915501E217F30779
:10087000A0F42E1B3F0B2817390778F0AC014E5F10
:100880005F4F2417350748F04E0F5F1F50935501F7
:10089000409354018193919302C0E0E0F0E0CF01D6
:1008A000DF91CF9108950F931F93CF93DF9300971C
:1008B00009F48CC0FC013297138212820091560118
:1008C000109157010115110581F420813181820FAA
:1008D000931F20915401309155012817390779F55C
:1008E000F0935501E093540171C0D80140E050E00D
:1008F000AE17BF0750F412962D913C911397AD019E
:100900002115310509F1D901F3CF9D01DA013383B6
:10091000228360817181860F971F8217930769F484
:10092000EC0128813981260F371F2E5F3F4F31831D
:1009300020838A819B8193838283452B29F4F093C2
:100940005701E093560142C01396FC93EE93129721
:10095000ED01499159919E01240F351FE217F307CC
:1009600071F480819181840F951F029611969C935A
:100970008E938281938113969C938E931297E0E0DD
:10098000F0E0D80112968D919C911397009719F081
:10099000F8018C01F6CF8D919C9198012E5F3F4F0D
:1009A000820F931F20915401309155012817390768
:1009B00069F4309729F4109257011092560102C041
:1009C000138212821093550100935401DF91CF914D
:0A09D0001F910F910895F894FFCFD6
:1009DA00000058012000456E7465722045787072D7
:0809EA00657373696F6E210053
:00000001FF
