:100000000C9434000C9449000C9449000C94490061
:100010000C9449000C9449000C9449000C9449003C
:100020000C9449000C9449000C9449000C9449002C
:100030000C9449000C9449000C9449000C9449001C
:100040000C9449000C9449000C9449000C9449000C
:100050000C9449000C9449000C9449000C944900FC
:100060000C9449000C94490011241FBECFEFD8E036
:10007000DEBFCDBF11E0A0E0B1E0E6EDF3E002C0ED
:1000800005900D92A231B107D9F70E94D6010C94C8
:10009000E9010C94000080E090E0089580E090E099
:1000A000089580E090E0089580E090E0089580E079
:1000B00090E008950895509A519A3A9A539A549814
:1000C0005598569857985C9A5D9A5E9A5F9A589A96
:1000D000599A5A9A5B9A0895AF92BF92CF92DF9243
:1000E000EF92FF920F931F93CF93DF9320E0589AE4
:1000F000599A5A9A5B9A223041F0233041F02130CC
:1001000011F0589805C0599803C05A9801C05B98DF
:1001100069B199B189B179B1B9B059B139B149B1C0
:10012000B4FA002700F910E055FBEE24E0F8F12CBA
:100130005801AE20BF20441F4427441F50E04A21ED
:100140005B2136FBCC24C0F8D12C4C215D21413001
:10015000510511F159B149B119B139B154FBEE272B
:10016000E0F9F0E045FBAA27A0F9B0E07F01EA2220
:10017000FB22331F3327331F432F50E04E215F21D3
:1001800016FB112710F9C12F30E0D32F4C235D232C
:1001900041305105F9F606C02F5F243009F0A7CF92
:1001A00080E056C0382F3074872F8078832B362F0D
:1001B0003071832B9072892B223081F4803B51F077
:1001C00018F48037F1F00CC0803D31F0803E41F4EE
:1001D00081E33EC083E33CC082E33AC0233099F41C
:1001E000803B59F020F48037D9F68BE231C0803D56
:1001F00031F0803EA9F683E42BC08DE329C080E373
:1002000027C08DE225C0213081F0803B51F018F4E9
:100210008037E9F00AC0803D31F0803E31F487E359
:1002200017C089E315C088E313C0803B61F020F458
:10023000803721F68AE20CC0803D39F0803E09F01B
:10024000BDCF84E305C086E303C085E301C08FE230
:10025000DF91CF911F910F91FF90EF90DF90CF90A2
:10026000BF90AF900895982F907F98B94698449A80
:10027000EFE9FFE03197F1F700C000004498EFE9A3
:10028000FFE03197F1F700C00000F0E18F9FC0015F
:10029000112488B9449A8FE99FE00197F1F700C0D3
:1002A00000004498EFE9FFE03197F1F700C000004B
:1002B00008958FE087B987B1806787B982E088B9F0
:1002C000449A8FE99FE00197F1F700C0000044983D
:1002D0008FE99FE00197F1F700C0000088E20E94DB
:1002E00033018FE99FE00197F1F700C000008FE034
:1002F0000E9433018FE99FE00197F1F700C00000F1
:1003000080E80C943301982F907F98B9469A449ACC
:10031000EFE3FFE13197F1F700C000004498EFE30D
:10032000FFE13197F1F700C00000F0E18F9FC001BD
:10033000112488B9449A8FE39FE10197F1F700C037
:1003400000004498EFE3FFE13197F1F700C00000AF
:100350000895CF93DF93EC018991882319F00E94CF
:100360008301FACFDF91CF91089581E00E9433019C
:100370008FE19EE40197F1F700C00000089520E4AA
:10038000829FC00111248068860F0E94330187EC90
:1003900090E00197F1F700C000000895089580E013
:1003A0000895089580E0089581E008950E9459011C
:1003B0000E945B0080E091E00E94A90160E081E082
:1003C0000E94BF010E944B000E9454000E945A00EC
:0603D000F1CFF894FFCF0D
:1003D600456E7465722045787072657373696F6EC9
:0203E6002100F4
:00000001FF
