:100000000C9434000C9451000C9451000C94510049
:100010000C9451000C9451000C9451000C9451001C
:100020000C9451000C9451000C9451000C9451000C
:100030000C9451000C9451000C9451000C945100FC
:100040000C9451000C9451000C9451000C945100EC
:100050000C9451000C9451000C9451000C945100DC
:100060000C9451000C94510011241FBECFEFD8E026
:10007000DEBFCDBF11E0A0E0B1E0ECE0F7E002C0F0
:1000800005900D92A831B107D9F721E0A8E1B1E0C0
:1000900001C01D92AC31B207E1F70E9450020C94EE
:1000A00084030C94000080E090E0089580E090E0EC
:1000B000089580E090E0089580E090E0089580E069
:1000C00090E008950895509A519A3A9A539A549804
:1000D0005598569857985C9A5D9A5E9A5F9A589A86
:1000E000599A5A9A5B9A0895AF92BF92CF92DF9233
:1000F000EF92FF920F931F93CF93DF9320E0589AD4
:10010000599A5A9A5B9A223041F0233041F02130BB
:1001100011F0589805C0599803C05A9801C05B98CF
:1001200069B199B189B179B1B9B059B139B149B1B0
:10013000B4FA002700F910E055FBEE24E0F8F12CAA
:100140005801AE20BF20441F4427441F50E04A21DD
:100150005B2136FBCC24C0F8D12C4C215D214130F1
:10016000510511F159B149B119B139B154FBEE271B
:10017000E0F9F0E045FBAA27A0F9B0E07F01EA2210
:10018000FB22331F3327331F432F50E04E215F21C3
:1001900016FB112710F9C12F30E0D32F4C235D231C
:1001A00041305105F9F606C02F5F243009F0A7CF82
:1001B00080E056C0382F3074872F8078832B362FFD
:1001C0003071832B9072892B223081F4803B51F067
:1001D00018F48037F1F00CC0803D31F0803E41F4DE
:1001E00081E33EC083E33CC082E33AC0233099F40C
:1001F000803B59F020F48037D9F68BE231C0803D46
:1002000031F0803EA9F683E42BC08DE329C080E362
:1002100027C08DE225C0213081F0803B51F018F4D9
:100220008037E9F00AC0803D31F0803E31F487E349
:1002300017C089E315C088E313C0803B61F020F448
:10024000803721F68AE20CC0803D39F0803E09F00B
:10025000BDCF84E305C086E303C085E301C08FE220
:10026000DF91CF911F910F91FF90EF90DF90CF9092
:10027000BF90AF900895982F907F98B94698449A70
:10028000EFE9FFE03197F1F700C000004498EFE993
:10029000FFE03197F1F700C00000F0E18F9FC0014F
:1002A000112488B9449A8FE99FE00197F1F700C0C3
:1002B00000004498EFE9FFE03197F1F700C000003B
:1002C00008958FE087B987B1806787B982E088B9E0
:1002D000449A8FE99FE00197F1F700C0000044982D
:1002E0008FE99FE00197F1F700C0000088E20E94CB
:1002F0003B018FE99FE00197F1F700C000008FE01C
:100300000E943B018FE99FE00197F1F700C00000D8
:1003100080E80C943B01982F907F98B9469A449AB4
:10032000EFE3FFE13197F1F700C000004498EFE3FD
:10033000FFE13197F1F700C00000F0E18F9FC001AD
:10034000112488B9449A8FE39FE10197F1F700C027
:1003500000004498EFE3FFE13197F1F700C000009F
:100360000895CF93DF93EC018991882319F00E94BF
:100370008B01FACFDF91CF91089581E00E943B017C
:100380008FE19EE40197F1F700C00000089520E49A
:10039000829FC00111248068860F0E943B0187EC78
:1003A00090E00197F1F700C0000008950F931F93AC
:1003B000CF93DF938C0186E090E00E946302EC0112
:1003C000198308838FEF9FEF9B838A83C801880F6F
:1003D000991F0E9463029D838C83CE01DF91CF9190
:1003E0001F910F910895DC0112962D913C91139766
:1003F0008D919C9111972817390781F01496ED91F2
:10040000FC9115972F5F3F4F13963C932E931297B5
:10041000220F331FE20FF31F718360830895FC01E5
:10042000828193818F3F2FEF920751F09C01220F21
:10043000331F0480F581E02DE20FF31F808191814D
:100440000895DC0112962D913C9113972F3F8FEF69
:10045000380781F01496ED91FC911597C901019729
:1004600013969C938E931297220F331FE20FF31F64
:1004700020813181C901089521E0FC0182819381AD
:10048000019609F020E0822F0895FC0181E042816D
:100490005381208131814217530709F080E008958C
:1004A0000E9461010E94630086E091E00E94B10118
:1004B00060E081E00E94C7010E9453000E945C003E
:1004C0000E946200F1CF0F931F93CF93DF9382308E
:1004D000910510F482E090E0E0911A01F0911B0187
:1004E00020E030E0A0E0B0E0309719F14081518188
:1004F0000281138148175907C8F08417950769F4DA
:10050000109731F012960C93129713961C9327C0F4
:1005100000931A0110931B0122C02115310519F017
:100520004217530718F49A01BD01EF01DF01F801EA
:10053000DBCF21153105F9F0281B390B24303105AB
:1005400080F48A819B816115710521F0FB01938301
:10055000828304C090931B0180931A01FE0132969E
:1005600044C0FE01E20FF31F8193919322503109A1
:10057000398328833AC02091180130911901232B27
:1005800041F420910201309103013093190120932D
:10059000180120910001309101012115310541F42C
:1005A0002DB73EB74091040150910501241B350B36
:1005B000E0911801F0911901E217F307A0F42E1B46
:1005C0003F0B2817390778F0AC014E5F5F4F2417B7
:1005D000350748F04E0F5F1F5093190140931801E3
:1005E0008193919302C0E0E0F0E0CF01DF91CF91E1
:1005F0001F910F910895CF93DF93009709F481C065
:10060000FC01329713821282A0911A01B0911B0152
:10061000109781F420813181820F931F209118015E
:10062000309119012817390751F5F0931901E0931A
:10063000180167C0ED0120E030E0CE17DF0740F47D
:100640004A815B819E0141155105F1F0EA01F5CF28
:10065000D383C28340815181840F951FC817D90766
:1006600059F488819981840F951F02969183808324
:100670008A819B81938382832115310529F4F0932C
:100680001B01E0931A013DC0E901FB83EA83499114
:100690005991C40FD51FEC17FD0761F4808191813A
:1006A000840F951F0296E901998388838281938143
:1006B0009B838A83E0E0F0E012968D919C911397E2
:1006C000009719F0FD01DC01F7CF8D919C911197F6
:1006D0009D012E5F3F4F820F931F20911801309193
:1006E00019012817390769F4309729F410921B0172
:1006F00010921A0102C013821282B0931901A093C2
:0C0700001801DF91CF910895F894FFCF0D
:10070C0000001C012000456E7465722045787072E3
:08071C00657373696F6E210023
:00000001FF
